{"abi":[{"type":"constructor","inputs":[],"stateMutability":"nonpayable"},{"type":"function","name":"MAX_SOLAR_DW","inputs":[],"outputs":[{"name":"","type":"uint32","internalType":"uint32"}],"stateMutability":"view"},{"type":"function","name":"MIN_INTERVAL","inputs":[],"outputs":[{"name":"","type":"uint256","internalType":"uint256"}],"stateMutability":"view"},{"type":"function","name":"latest","inputs":[{"name":"key","type":"address","internalType":"address"}],"outputs":[{"name":"name","type":"string","internalType":"string"},{"name":"active","type":"bool","internalType":"bool"},{"name":"epochCount","type":"uint64","internalType":"uint64"},{"name":"lastPostedAt","type":"uint64","internalType":"uint64"},{"name":"solarDw","type":"uint32","internalType":"uint32"},{"name":"batteryPct","type":"uint8","internalType":"uint8"},{"name":"servedMb","type":"uint32","internalType":"uint32"},{"name":"uptimeS","type":"uint32","internalType":"uint32"}],"stateMutability":"view"},{"type":"function","name":"nodeCount","inputs":[],"outputs":[{"name":"","type":"uint256","internalType":"uint256"}],"stateMutability":"view"},{"type":"function","name":"nodeList","inputs":[{"name":"","type":"uint256","internalType":"uint256"}],"outputs":[{"name":"","type":"address","internalType":"address"}],"stateMutability":"view"},{"type":"function","name":"nodes","inputs":[{"name":"","type":"address","internalType":"address"}],"outputs":[{"name":"name","type":"string","internalType":"string"},{"name":"active","type":"bool","internalType":"bool"},{"name":"epochCount","type":"uint64","internalType":"uint64"},{"name":"lastPostedAt","type":"uint64","internalType":"uint64"},{"name":"lastSolarDw","type":"uint32","internalType":"uint32"},{"name":"lastBatteryPct","type":"uint8","internalType":"uint8"},{"name":"lastServedMb","type":"uint32","internalType":"uint32"},{"name":"lastUptimeS","type":"uint32","internalType":"uint32"}],"stateMutability":"view"},{"type":"function","name":"owner","inputs":[],"outputs":[{"name":"","type":"address","internalType":"address"}],"stateMutability":"view"},{"type":"function","name":"postEpoch","inputs":[{"name":"solarDw","type":"uint32","internalType":"uint32"},{"name":"batteryPct","type":"uint8","internalType":"uint8"},{"name":"servedMb","type":"uint32","internalType":"uint32"},{"name":"uptimeS","type":"uint32","internalType":"uint32"}],"outputs":[],"stateMutability":"nonpayable"},{"type":"function","name":"registerNode","inputs":[{"name":"key","type":"address","internalType":"address"},{"name":"name","type":"string","internalType":"string"}],"outputs":[],"stateMutability":"nonpayable"},{"type":"function","name":"retireNode","inputs":[{"name":"key","type":"address","internalType":"address"}],"outputs":[],"stateMutability":"nonpayable"},{"type":"function","name":"transferOwnership","inputs":[{"name":"to","type":"address","internalType":"address"}],"outputs":[],"stateMutability":"nonpayable"},{"type":"event","name":"Epoch","inputs":[{"name":"node","type":"address","indexed":true,"internalType":"address"},{"name":"epoch","type":"uint64","indexed":true,"internalType":"uint64"},{"name":"solarDw","type":"uint32","indexed":false,"internalType":"uint32"},{"name":"batteryPct","type":"uint8","indexed":false,"internalType":"uint8"},{"name":"servedMb","type":"uint32","indexed":false,"internalType":"uint32"},{"name":"uptimeS","type":"uint32","indexed":false,"internalType":"uint32"},{"name":"timestamp","type":"uint256","indexed":false,"internalType":"uint256"}],"anonymous":false},{"type":"event","name":"NodeRegistered","inputs":[{"name":"key","type":"address","indexed":true,"internalType":"address"},{"name":"name","type":"string","indexed":false,"internalType":"string"}],"anonymous":false},{"type":"event","name":"NodeRetired","inputs":[{"name":"key","type":"address","indexed":true,"internalType":"address"}],"anonymous":false},{"type":"event","name":"OwnershipTransferred","inputs":[{"name":"from","type":"address","indexed":true,"internalType":"address"},{"name":"to","type":"address","indexed":true,"internalType":"address"}],"anonymous":false},{"type":"error","name":"AlreadyRegistered","inputs":[]},{"type":"error","name":"BadReading","inputs":[]},{"type":"error","name":"NotNode","inputs":[]},{"type":"error","name":"NotOwner","inputs":[]},{"type":"error","name":"TooSoon","inputs":[]},{"type":"error","name":"ZeroAddress","inputs":[]}],"bytecode":{"object":"0x6080604052348015600e575f80fd5b50335f806101000a81548173ffffffffffffffffffffffffffffffffffffffff021916908373ffffffffffffffffffffffffffffffffffffffff1602179055503373ffffffffffffffffffffffffffffffffffffffff165f73ffffffffffffffffffffffffffffffffffffffff167f8be0079c531659141344cd1fd0a4f28419497f9722a3daafe3b4186f6b6457e060405160405180910390a3611782806100b55f395ff3fe608060405234801561000f575f80fd5b50600436106100a7575f3560e01c80637946460d1161006f5780637946460d146101835780638b2f43621461019f5780638da5cb5b146101bd578063bb9b342d146101db578063c0368740146101f7578063f2fde38b14610215576100a7565b8063189a5a17146100ab5780631ce8452b146100e2578063208f2a31146100fe5780634a4aac1a1461012e5780636da49b8314610165575b5f80fd5b6100c560048036038101906100c09190610f36565b610231565b6040516100d9989796959493929190611046565b60405180910390f35b6100fc60048036038101906100f7919061111d565b61036c565b005b610118600480360381019061011391906111b4565b61065f565b60405161012591906111ee565b60405180910390f35b61014860048036038101906101439190610f36565b61069a565b60405161015c989796959493929190611046565b60405180910390f35b61016d610820565b60405161017a9190611216565b60405180910390f35b61019d60048036038101906101989190610f36565b61082c565b005b6101a76109d0565b6040516101b4919061122f565b60405180910390f35b6101c56109d6565b6040516101d291906111ee565b60405180910390f35b6101f560048036038101906101f091906112a9565b6109f9565b005b6101ff610d2a565b60405161020c9190611216565b60405180910390f35b61022f600480360381019061022a9190610f36565b610d30565b005b6002602052805f5260405f205f91509050805f01805461025090611333565b80601f016020809104026020016040519081016040528092919081815260200182805461027c90611333565b80156102c75780601f1061029e576101008083540402835291602001916102c7565b820191905f5260205f20905b8154815290600101906020018083116102aa57829003601f168201915b505050505090806001015f9054906101000a900460ff16908060010160019054906101000a900467ffffffffffffffff16908060010160099054906101000a900467ffffffffffffffff16908060010160119054906101000a900463ffffffff16908060010160159054906101000a900460ff16908060010160169054906101000a900463ffffffff169080600101601a9054906101000a900463ffffffff16905088565b5f60025f3373ffffffffffffffffffffffffffffffffffffffff1673ffffffffffffffffffffffffffffffffffffffff1681526020019081526020015f209050806001015f9054906101000a900460ff166103f3576040517f5cd26b6800000000000000000000000000000000000000000000000000000000815260040160405180910390fd5b5f8160010160099054906101000a900467ffffffffffffffff1667ffffffffffffffff1614158015610453575061012c8160010160099054906101000a900467ffffffffffffffff1667ffffffffffffffff166104509190611390565b42105b1561048a576040517f6fed7d8500000000000000000000000000000000000000000000000000000000815260040160405180910390fd5b60648460ff1611806104a9575061c35063ffffffff168563ffffffff16115b156104e0576040517f7f5ec16800000000000000000000000000000000000000000000000000000000815260040160405180910390fd5b60018160010160018282829054906101000a900467ffffffffffffffff1661050891906113c3565b92506101000a81548167ffffffffffffffff021916908367ffffffffffffffff160217905550428160010160096101000a81548167ffffffffffffffff021916908367ffffffffffffffff160217905550848160010160116101000a81548163ffffffff021916908363ffffffff160217905550838160010160156101000a81548160ff021916908360ff160217905550828160010160166101000a81548163ffffffff021916908363ffffffff1602179055508181600101601a6101000a81548163ffffffff021916908363ffffffff1602179055508060010160019054906101000a900467ffffffffffffffff1667ffffffffffffffff163373ffffffffffffffffffffffffffffffffffffffff167f6e95d77d28590bf98c4f4570baea8a19c40d52c69ed9baea175f20341eeb086b87878787426040516106509594939291906113fe565b60405180910390a35050505050565b6001818154811061066e575f80fd5b905f5260205f20015f915054906101000a900473ffffffffffffffffffffffffffffffffffffffff1681565b60605f805f805f805f8060025f8b73ffffffffffffffffffffffffffffffffffffffff1673ffffffffffffffffffffffffffffffffffffffff1681526020019081526020015f209050805f01816001015f9054906101000a900460ff168260010160019054906101000a900467ffffffffffffffff168360010160099054906101000a900467ffffffffffffffff168460010160119054906101000a900463ffffffff168560010160159054906101000a900460ff168660010160169054906101000a900463ffffffff1687600101601a9054906101000a900463ffffffff1687805461078690611333565b80601f01602080910402602001604051908101604052809291908181526020018280546107b290611333565b80156107fd5780601f106107d4576101008083540402835291602001916107fd565b820191905f5260205f20905b8154815290600101906020018083116107e057829003601f168201915b505050505097509850985098509850985098509850985050919395975091939597565b5f600180549050905090565b5f8054906101000a900473ffffffffffffffffffffffffffffffffffffffff1673ffffffffffffffffffffffffffffffffffffffff163373ffffffffffffffffffffffffffffffffffffffff16146108b0576040517f30cd747100000000000000000000000000000000000000000000000000000000815260040160405180910390fd5b60025f8273ffffffffffffffffffffffffffffffffffffffff1673ffffffffffffffffffffffffffffffffffffffff1681526020019081526020015f206001015f9054906101000a900460ff16610933576040517f5cd26b6800000000000000000000000000000000000000000000000000000000815260040160405180910390fd5b5f60025f8373ffffffffffffffffffffffffffffffffffffffff1673ffffffffffffffffffffffffffffffffffffffff1681526020019081526020015f206001015f6101000a81548160ff0219169083151502179055508073ffffffffffffffffffffffffffffffffffffffff167fae70e4b7fd084c31024c19cf635c0aa55a998467504bd43923de18757e7e980b60405160405180910390a250565b61c35081565b5f8054906101000a900473ffffffffffffffffffffffffffffffffffffffff1681565b5f8054906101000a900473ffffffffffffffffffffffffffffffffffffffff1673ffffffffffffffffffffffffffffffffffffffff163373ffffffffffffffffffffffffffffffffffffffff1614610a7d576040517f30cd747100000000000000000000000000000000000000000000000000000000815260040160405180910390fd5b5f73ffffffffffffffffffffffffffffffffffffffff168373ffffffffffffffffffffffffffffffffffffffff1603610ae2576040517fd92e233d00000000000000000000000000000000000000000000000000000000815260040160405180910390fd5b60025f8473ffffffffffffffffffffffffffffffffffffffff1673ffffffffffffffffffffffffffffffffffffffff1681526020019081526020015f206001015f9054906101000a900460ff1680610b9757505f60025f8573ffffffffffffffffffffffffffffffffffffffff1673ffffffffffffffffffffffffffffffffffffffff1681526020019081526020015f2060010160019054906101000a900467ffffffffffffffff1667ffffffffffffffff16115b15610bce576040517f3a81d6fc00000000000000000000000000000000000000000000000000000000815260040160405180910390fd5b818160025f8673ffffffffffffffffffffffffffffffffffffffff1673ffffffffffffffffffffffffffffffffffffffff1681526020019081526020015f205f019182610c1c929190611623565b50600160025f8573ffffffffffffffffffffffffffffffffffffffff1673ffffffffffffffffffffffffffffffffffffffff1681526020019081526020015f206001015f6101000a81548160ff021916908315150217905550600183908060018154018082558091505060019003905f5260205f20015f9091909190916101000a81548173ffffffffffffffffffffffffffffffffffffffff021916908373ffffffffffffffffffffffffffffffffffffffff1602179055508273ffffffffffffffffffffffffffffffffffffffff167f27dcab8cdfa14145566e2b9d04fea5a4e8ea320a3f04488a1de4d431ed1080ab8383604051610d1d92919061172a565b60405180910390a2505050565b61012c81565b5f8054906101000a900473ffffffffffffffffffffffffffffffffffffffff1673ffffffffffffffffffffffffffffffffffffffff163373ffffffffffffffffffffffffffffffffffffffff1614610db4576040517f30cd747100000000000000000000000000000000000000000000000000000000815260040160405180910390fd5b5f73ffffffffffffffffffffffffffffffffffffffff168173ffffffffffffffffffffffffffffffffffffffff1603610e19576040517fd92e233d00000000000000000000000000000000000000000000000000000000815260040160405180910390fd5b8073ffffffffffffffffffffffffffffffffffffffff165f8054906101000a900473ffffffffffffffffffffffffffffffffffffffff1673ffffffffffffffffffffffffffffffffffffffff167f8be0079c531659141344cd1fd0a4f28419497f9722a3daafe3b4186f6b6457e060405160405180910390a3805f806101000a81548173ffffffffffffffffffffffffffffffffffffffff021916908373ffffffffffffffffffffffffffffffffffffffff16021790555050565b5f80fd5b5f80fd5b5f73ffffffffffffffffffffffffffffffffffffffff82169050919050565b5f610f0582610edc565b9050919050565b610f1581610efb565b8114610f1f575f80fd5b50565b5f81359050610f3081610f0c565b92915050565b5f60208284031215610f4b57610f4a610ed4565b5b5f610f5884828501610f22565b91505092915050565b5f81519050919050565b5f82825260208201905092915050565b8281835e5f83830152505050565b5f601f19601f8301169050919050565b5f610fa382610f61565b610fad8185610f6b565b9350610fbd818560208601610f7b565b610fc681610f89565b840191505092915050565b5f8115159050919050565b610fe581610fd1565b82525050565b5f67ffffffffffffffff82169050919050565b61100781610feb565b82525050565b5f63ffffffff82169050919050565b6110258161100d565b82525050565b5f60ff82169050919050565b6110408161102b565b82525050565b5f610100820190508181035f83015261105f818b610f99565b905061106e602083018a610fdc565b61107b6040830189610ffe565b6110886060830188610ffe565b611095608083018761101c565b6110a260a0830186611037565b6110af60c083018561101c565b6110bc60e083018461101c565b9998505050505050505050565b6110d28161100d565b81146110dc575f80fd5b50565b5f813590506110ed816110c9565b92915050565b6110fc8161102b565b8114611106575f80fd5b50565b5f81359050611117816110f3565b92915050565b5f805f806080858703121561113557611134610ed4565b5b5f611142878288016110df565b945050602061115387828801611109565b9350506040611164878288016110df565b9250506060611175878288016110df565b91505092959194509250565b5f819050919050565b61119381611181565b811461119d575f80fd5b50565b5f813590506111ae8161118a565b92915050565b5f602082840312156111c9576111c8610ed4565b5b5f6111d6848285016111a0565b91505092915050565b6111e881610efb565b82525050565b5f6020820190506112015f8301846111df565b92915050565b61121081611181565b82525050565b5f6020820190506112295f830184611207565b92915050565b5f6020820190506112425f83018461101c565b92915050565b5f80fd5b5f80fd5b5f80fd5b5f8083601f84011261126957611268611248565b5b8235905067ffffffffffffffff8111156112865761128561124c565b5b6020830191508360018202830111156112a2576112a1611250565b5b9250929050565b5f805f604084860312156112c0576112bf610ed4565b5b5f6112cd86828701610f22565b935050602084013567ffffffffffffffff8111156112ee576112ed610ed8565b5b6112fa86828701611254565b92509250509250925092565b7f4e487b71000000000000000000000000000000000000000000000000000000005f52602260045260245ffd5b5f600282049050600182168061134a57607f821691505b60208210810361135d5761135c611306565b5b50919050565b7f4e487b71000000000000000000000000000000000000000000000000000000005f52601160045260245ffd5b5f61139a82611181565b91506113a583611181565b92508282019050808211156113bd576113bc611363565b5b92915050565b5f6113cd82610feb565b91506113d883610feb565b9250828201905067ffffffffffffffff8111156113f8576113f7611363565b5b92915050565b5f60a0820190506114115f83018861101c565b61141e6020830187611037565b61142b604083018661101c565b611438606083018561101c565b6114456080830184611207565b9695505050505050565b5f82905092915050565b7f4e487b71000000000000000000000000000000000000000000000000000000005f52604160045260245ffd5b5f819050815f5260205f209050919050565b5f6020601f8301049050919050565b5f82821b905092915050565b5f600883026114e27fffffffffffffffffffffffffffffffffffffffffffffffffffffffffffffffff826114a7565b6114ec86836114a7565b95508019841693508086168417925050509392505050565b5f819050919050565b5f61152761152261151d84611181565b611504565b611181565b9050919050565b5f819050919050565b6115408361150d565b61155461154c8261152e565b8484546114b3565b825550505050565b5f90565b61156861155c565b611573818484611537565b505050565b5b818110156115965761158b5f82611560565b600181019050611579565b5050565b601f8211156115db576115ac81611486565b6115b584611498565b810160208510156115c4578190505b6115d86115d085611498565b830182611578565b50505b505050565b5f82821c905092915050565b5f6115fb5f19846008026115e0565b1980831691505092915050565b5f61161383836115ec565b9150826002028217905092915050565b61162d838361144f565b67ffffffffffffffff81111561164657611645611459565b5b6116508254611333565b61165b82828561159a565b5f601f831160018114611688575f8415611676578287013590505b6116808582611608565b8655506116e7565b601f19841661169686611486565b5f5b828110156116bd57848901358255600182019150602085019450602081019050611698565b868310156116da57848901356116d6601f8916826115ec565b8355505b6001600288020188555050505b50505050505050565b828183375f83830152505050565b5f6117098385610f6b565b93506117168385846116f0565b61171f83610f89565b840190509392505050565b5f6020820190508181035f8301526117438184866116fe565b9050939250505056fea264697066735822122024780c549777ad34148505d8ec781b9cbb0a16ced8b094d287fd02eb994daa7464736f6c634300081a0033","linkReferences":{}},"methodIdentifiers":{"MAX_SOLAR_DW()":"8b2f4362","MIN_INTERVAL()":"c0368740","latest(address)":"4a4aac1a","nodeCount()":"6da49b83","nodeList(uint256)":"208f2a31","nodes(address)":"189a5a17","owner()":"8da5cb5b","postEpoch(uint32,uint8,uint32,uint32)":"1ce8452b","registerNode(address,string)":"bb9b342d","retireNode(address)":"7946460d","transferOwnership(address)":"f2fde38b"},"id":19}